{
  "_format": "hh-sol-artifact-1",
  "contractName": "LiquidityIncentivize",
  "sourceName": "contracts/LiquidityIncentivize.sol",
  "abi": [
    {
      "inputs": [
        {
          "internalType": "uint256",
          "name": "_maxWeeklyReward",
          "type": "uint256"
        }
      ],
      "stateMutability": "payable",
      "type": "constructor"
    },
    {
      "anonymous": false,
      "inputs": [
        {
          "indexed": true,
          "internalType": "address",
          "name": "previousOwner",
          "type": "address"
        },
        {
          "indexed": true,
          "internalType": "address",
          "name": "newOwner",
          "type": "address"
        }
      ],
      "name": "OwnershipTransferred",
      "type": "event"
    },
    {
      "inputs": [],
      "name": "isActive",
      "outputs": [
        {
          "internalType": "bool",
          "name": "",
          "type": "bool"
        }
      ],
      "stateMutability": "view",
      "type": "function"
    },
    {
      "inputs": [],
      "name": "maxWeeklyReward",
      "outputs": [
        {
          "internalType": "uint256",
          "name": "",
          "type": "uint256"
        }
      ],
      "stateMutability": "view",
      "type": "function"
    },
    {
      "inputs": [],
      "name": "owner",
      "outputs": [
        {
          "internalType": "address",
          "name": "",
          "type": "address"
        }
      ],
      "stateMutability": "view",
      "type": "function"
    },
    {
      "inputs": [],
      "name": "renounceOwnership",
      "outputs": [],
      "stateMutability": "nonpayable",
      "type": "function"
    },
    {
      "inputs": [],
      "name": "rewardsLeft",
      "outputs": [
        {
          "internalType": "uint256",
          "name": "",
          "type": "uint256"
        }
      ],
      "stateMutability": "view",
      "type": "function"
    },
    {
      "inputs": [
        {
          "internalType": "address",
          "name": "newOwner",
          "type": "address"
        }
      ],
      "name": "transferOwnership",
      "outputs": [],
      "stateMutability": "nonpayable",
      "type": "function"
    },
    {
      "inputs": [],
      "name": "updateRewardsGlobally",
      "outputs": [],
      "stateMutability": "nonpayable",
      "type": "function"
    },
    {
      "inputs": [
        {
          "internalType": "address",
          "name": "user",
          "type": "address"
        },
        {
          "internalType": "uint256",
          "name": "amount",
          "type": "uint256"
        },
        {
          "internalType": "bool",
          "name": "liquidityAdded",
          "type": "bool"
        }
      ],
      "name": "updateUserData",
      "outputs": [],
      "stateMutability": "nonpayable",
      "type": "function"
    },
    {
      "inputs": [
        {
          "internalType": "address",
          "name": "user",
          "type": "address"
        }
      ],
      "name": "updateUserRewards",
      "outputs": [],
      "stateMutability": "nonpayable",
      "type": "function"
    },
    {
      "inputs": [
        {
          "internalType": "address",
          "name": "",
          "type": "address"
        }
      ],
      "name": "userData",
      "outputs": [
        {
          "internalType": "uint256",
          "name": "rewards",
          "type": "uint256"
        },
        {
          "internalType": "uint256",
          "name": "deposit",
          "type": "uint256"
        },
        {
          "internalType": "uint256",
          "name": "updateTimestamp",
          "type": "uint256"
        }
      ],
      "stateMutability": "view",
      "type": "function"
    },
    {
      "inputs": [],
      "name": "weeklyRewardLeft",
      "outputs": [
        {
          "internalType": "uint256",
          "name": "",
          "type": "uint256"
        }
      ],
      "stateMutability": "view",
      "type": "function"
    },
    {
      "inputs": [],
      "name": "withdraw",
      "outputs": [],
      "stateMutability": "nonpayable",
      "type": "function"
    },
    {
      "stateMutability": "payable",
      "type": "receive"
    }
  ],
  "bytecode": "0x60806040526040516200172938038062001729833981810160405281019062000029919062000191565b620000496200003d6200008560201b60201c565b6200008d60201b60201c565b346004819055508060068190555060065460045410156200006d5760045462000071565b6006545b6005819055504260078190555050620001c3565b600033905090565b60008060009054906101000a900473ffffffffffffffffffffffffffffffffffffffff169050816000806101000a81548173ffffffffffffffffffffffffffffffffffffffff021916908373ffffffffffffffffffffffffffffffffffffffff1602179055508173ffffffffffffffffffffffffffffffffffffffff168173ffffffffffffffffffffffffffffffffffffffff167f8be0079c531659141344cd1fd0a4f28419497f9722a3daafe3b4186f6b6457e060405160405180910390a35050565b600080fd5b6000819050919050565b6200016b8162000156565b81146200017757600080fd5b50565b6000815190506200018b8162000160565b92915050565b600060208284031215620001aa57620001a962000151565b5b6000620001ba848285016200017a565b91505092915050565b61155680620001d36000396000f3fe6080604052600436106100ab5760003560e01c8063a508ea7b11610064578063a508ea7b146101d8578063a8bc58f214610201578063c89109131461022c578063e0d25ac11461026b578063f2fde38b14610296578063f31878ae146102bf5761010d565b806321b2c3a61461011257806322f3e2d4146101295780633ccfd60b14610154578063715018a61461016b5780638da5cb5b146101825780638e7c3657146101ad5761010d565b3661010d5734600460008282546100c29190610df1565b9250508190555060065460045410156100dd576004546100e1565b6006545b6005819055506000341461010b576000600860006101000a81548160ff0219169083151502179055505b005b600080fd5b34801561011e57600080fd5b506101276102e8565b005b34801561013557600080fd5b5061013e6103cd565b60405161014b9190610e62565b60405180910390f35b34801561016057600080fd5b50610169610400565b005b34801561017757600080fd5b5061018061053f565b005b34801561018e57600080fd5b506101976105c7565b6040516101a49190610ebe565b60405180910390f35b3480156101b957600080fd5b506101c26105f0565b6040516101cf9190610ee8565b60405180910390f35b3480156101e457600080fd5b506101ff60048036038101906101fa9190610f8c565b6105f6565b005b34801561020d57600080fd5b50610216610a04565b6040516102239190610ee8565b60405180910390f35b34801561023857600080fd5b50610253600480360381019061024e9190610fdf565b610a0a565b6040516102629392919061100c565b60405180910390f35b34801561027757600080fd5b50610280610a34565b60405161028d9190610ee8565b60405180910390f35b3480156102a257600080fd5b506102bd60048036038101906102b89190610fdf565b610a3a565b005b3480156102cb57600080fd5b506102e660048036038101906102e19190610fdf565b610b32565b005b62093a806007546102f99190610df1565b42101561033b576040517f08c379a0000000000000000000000000000000000000000000000000000000008152600401610332906110c6565b60405180910390fd5b60005b6001805490508110156103a55761039260018281548110610362576103616110e6565b5b9060005260206000200160009054906101000a900473ffffffffffffffffffffffffffffffffffffffff16610b32565b808061039d90611115565b91505061033e565b504260078190555060065460045410156103c1576004546103c5565b6006545b600581905550565b600062093a806007546103e09190610df1565b421080156103fb5750600860009054906101000a900460ff16155b905090565b6000600260003373ffffffffffffffffffffffffffffffffffffffff1673ffffffffffffffffffffffffffffffffffffffff1681526020019081526020016000206000015490506000600260003373ffffffffffffffffffffffffffffffffffffffff1673ffffffffffffffffffffffffffffffffffffffff1681526020019081526020016000206000018190555060003373ffffffffffffffffffffffffffffffffffffffff16826040516104b59061118f565b60006040518083038185875af1925050503d80600081146104f2576040519150601f19603f3d011682016040523d82523d6000602084013e6104f7565b606091505b505090508061053b576040517f08c379a0000000000000000000000000000000000000000000000000000000008152600401610532906111f0565b60405180910390fd5b5050565b610547610cec565b73ffffffffffffffffffffffffffffffffffffffff166105656105c7565b73ffffffffffffffffffffffffffffffffffffffff16146105bb576040517f08c379a00000000000000000000000000000000000000000000000000000000081526004016105b29061125c565b60405180910390fd5b6105c56000610cf4565b565b60008060009054906101000a900473ffffffffffffffffffffffffffffffffffffffff16905090565b60055481565b6105fe610cec565b73ffffffffffffffffffffffffffffffffffffffff1661061c6105c7565b73ffffffffffffffffffffffffffffffffffffffff1614610672576040517f08c379a00000000000000000000000000000000000000000000000000000000081526004016106699061125c565b60405180910390fd5b600860009054906101000a900460ff16156106c2576040517f08c379a00000000000000000000000000000000000000000000000000000000081526004016106b9906112ee565b60405180910390fd5b62093a806007546106d39190610df1565b4210610714576040517f08c379a000000000000000000000000000000000000000000000000000000000815260040161070b90611380565b60405180910390fd5b6000600260008573ffffffffffffffffffffffffffffffffffffffff1673ffffffffffffffffffffffffffffffffffffffff16815260200190815260200160002060020154141561080a576001839080600181540180825580915050600190039060005260206000200160009091909190916101000a81548173ffffffffffffffffffffffffffffffffffffffff021916908373ffffffffffffffffffffffffffffffffffffffff16021790555042600260008573ffffffffffffffffffffffffffffffffffffffff1673ffffffffffffffffffffffffffffffffffffffff168152602001908152602001600020600201819055505b61081383610b32565b80158015610862575081600260008573ffffffffffffffffffffffffffffffffffffffff1673ffffffffffffffffffffffffffffffffffffffff16815260200190815260200160002060010154105b1561090f57600260008473ffffffffffffffffffffffffffffffffffffffff1673ffffffffffffffffffffffffffffffffffffffff16815260200190815260200160002060010154600360008282546108bb91906113a0565b925050819055506000600260008573ffffffffffffffffffffffffffffffffffffffff1673ffffffffffffffffffffffffffffffffffffffff168152602001908152602001600020600101819055506109ff565b8061098b57816003600082825461092691906113a0565b9250508190555081600260008573ffffffffffffffffffffffffffffffffffffffff1673ffffffffffffffffffffffffffffffffffffffff168152602001908152602001600020600101600082825461097f91906113a0565b925050819055506109fe565b816003600082825461099d9190610df1565b9250508190555081600260008573ffffffffffffffffffffffffffffffffffffffff1673ffffffffffffffffffffffffffffffffffffffff16815260200190815260200160002060010160008282546109f69190610df1565b925050819055505b5b505050565b60045481565b60026020528060005260406000206000915090508060000154908060010154908060020154905083565b60065481565b610a42610cec565b73ffffffffffffffffffffffffffffffffffffffff16610a606105c7565b73ffffffffffffffffffffffffffffffffffffffff1614610ab6576040517f08c379a0000000000000000000000000000000000000000000000000000000008152600401610aad9061125c565b60405180910390fd5b600073ffffffffffffffffffffffffffffffffffffffff168173ffffffffffffffffffffffffffffffffffffffff161415610b26576040517f08c379a0000000000000000000000000000000000000000000000000000000008152600401610b1d90611446565b60405180910390fd5b610b2f81610cf4565b50565b6000600354600260008473ffffffffffffffffffffffffffffffffffffffff1673ffffffffffffffffffffffffffffffffffffffff16815260200190815260200160002060010154600654600260008673ffffffffffffffffffffffffffffffffffffffff1673ffffffffffffffffffffffffffffffffffffffff1681526020019081526020016000206002015442610bcb91906113a0565b610bd59190611466565b610bdf9190611466565b610be991906114ef565b9050600554811115610c165760055490506001600860006101000a81548160ff0219169083151502179055505b8060046000828254610c2891906113a0565b925050819055508060056000828254610c4191906113a0565b9250508190555080600260008473ffffffffffffffffffffffffffffffffffffffff1673ffffffffffffffffffffffffffffffffffffffff1681526020019081526020016000206000016000828254610c9a9190610df1565b9250508190555042600260008473ffffffffffffffffffffffffffffffffffffffff1673ffffffffffffffffffffffffffffffffffffffff168152602001908152602001600020600201819055505050565b600033905090565b60008060009054906101000a900473ffffffffffffffffffffffffffffffffffffffff169050816000806101000a81548173ffffffffffffffffffffffffffffffffffffffff021916908373ffffffffffffffffffffffffffffffffffffffff1602179055508173ffffffffffffffffffffffffffffffffffffffff168173ffffffffffffffffffffffffffffffffffffffff167f8be0079c531659141344cd1fd0a4f28419497f9722a3daafe3b4186f6b6457e060405160405180910390a35050565b6000819050919050565b7f4e487b7100000000000000000000000000000000000000000000000000000000600052601160045260246000fd5b6000610dfc82610db8565b9150610e0783610db8565b9250827fffffffffffffffffffffffffffffffffffffffffffffffffffffffffffffffff03821115610e3c57610e3b610dc2565b5b828201905092915050565b60008115159050919050565b610e5c81610e47565b82525050565b6000602082019050610e776000830184610e53565b92915050565b600073ffffffffffffffffffffffffffffffffffffffff82169050919050565b6000610ea882610e7d565b9050919050565b610eb881610e9d565b82525050565b6000602082019050610ed36000830184610eaf565b92915050565b610ee281610db8565b82525050565b6000602082019050610efd6000830184610ed9565b92915050565b600080fd5b610f1181610e9d565b8114610f1c57600080fd5b50565b600081359050610f2e81610f08565b92915050565b610f3d81610db8565b8114610f4857600080fd5b50565b600081359050610f5a81610f34565b92915050565b610f6981610e47565b8114610f7457600080fd5b50565b600081359050610f8681610f60565b92915050565b600080600060608486031215610fa557610fa4610f03565b5b6000610fb386828701610f1f565b9350506020610fc486828701610f4b565b9250506040610fd586828701610f77565b9150509250925092565b600060208284031215610ff557610ff4610f03565b5b600061100384828501610f1f565b91505092915050565b60006060820190506110216000830186610ed9565b61102e6020830185610ed9565b61103b6040830184610ed9565b949350505050565b600082825260208201905092915050565b7f596f752063616e2063616c6c2074686973206f6e6c792061667465722037206460008201527f617973206f662070726576696f7573207765656b000000000000000000000000602082015250565b60006110b0603483611043565b91506110bb82611054565b604082019050919050565b600060208201905081810360008301526110df816110a3565b9050919050565b7f4e487b7100000000000000000000000000000000000000000000000000000000600052603260045260246000fd5b600061112082610db8565b91507fffffffffffffffffffffffffffffffffffffffffffffffffffffffffffffffff82141561115357611152610dc2565b5b600182019050919050565b600081905092915050565b50565b600061117960008361115e565b915061118482611169565b600082019050919050565b600061119a8261116c565b9150819050919050565b7f5472616e73666572206661696c65640000000000000000000000000000000000600082015250565b60006111da600f83611043565b91506111e5826111a4565b602082019050919050565b60006020820190508181036000830152611209816111cd565b9050919050565b7f4f776e61626c653a2063616c6c6572206973206e6f7420746865206f776e6572600082015250565b6000611246602083611043565b915061125182611210565b602082019050919050565b6000602082019050818103600083015261127581611239565b9050919050565b7f5468697320696e63656e7469766520646f736e2774206861766520616e79206d60008201527f6f72652072657761726473000000000000000000000000000000000000000000602082015250565b60006112d8602b83611043565b91506112e38261127c565b604082019050919050565b60006020820190508181036000830152611307816112cb565b9050919050565b7f43616c6c206075706461746552657761726473476c6f62616c6c79602066697260008201527f7374210000000000000000000000000000000000000000000000000000000000602082015250565b600061136a602383611043565b91506113758261130e565b604082019050919050565b600060208201905081810360008301526113998161135d565b9050919050565b60006113ab82610db8565b91506113b683610db8565b9250828210156113c9576113c8610dc2565b5b828203905092915050565b7f4f776e61626c653a206e6577206f776e657220697320746865207a65726f206160008201527f6464726573730000000000000000000000000000000000000000000000000000602082015250565b6000611430602683611043565b915061143b826113d4565b604082019050919050565b6000602082019050818103600083015261145f81611423565b9050919050565b600061147182610db8565b915061147c83610db8565b9250817fffffffffffffffffffffffffffffffffffffffffffffffffffffffffffffffff04831182151516156114b5576114b4610dc2565b5b828202905092915050565b7f4e487b7100000000000000000000000000000000000000000000000000000000600052601260045260246000fd5b60006114fa82610db8565b915061150583610db8565b925082611515576115146114c0565b5b82820490509291505056fea2646970667358221220d89d696894c5aa7475724b119db0739536b0bfcd9c758c5be191da50bd1fd49b64736f6c634300080a0033",
  "linkReferences": {},
  "deployedLinkReferences": {}
}